{
  "_format": "hh-sol-artifact-1",
  "contractName": "NFTMarket",
  "sourceName": "contracts/NFTMarket.sol",
  "abi": [
    {
      "inputs": [],
      "stateMutability": "nonpayable",
      "type": "constructor"
    },
    {
      "anonymous": false,
      "inputs": [
        {
          "indexed": true,
          "internalType": "uint256",
          "name": "itemId",
          "type": "uint256"
        },
        {
          "indexed": true,
          "internalType": "address",
          "name": "nftContract",
          "type": "address"
        },
        {
          "indexed": true,
          "internalType": "uint256",
          "name": "tokenId",
          "type": "uint256"
        },
        {
          "indexed": false,
          "internalType": "address",
          "name": "seller",
          "type": "address"
        },
        {
          "indexed": false,
          "internalType": "address",
          "name": "owner",
          "type": "address"
        },
        {
          "indexed": false,
          "internalType": "uint256",
          "name": "price",
          "type": "uint256"
        },
        {
          "indexed": false,
          "internalType": "bool",
          "name": "sold",
          "type": "bool"
        }
      ],
      "name": "MarketItemCreated",
      "type": "event"
    },
    {
      "inputs": [
        {
          "internalType": "address",
          "name": "nftContract",
          "type": "address"
        },
        {
          "internalType": "uint256",
          "name": "tokenId",
          "type": "uint256"
        },
        {
          "internalType": "uint256",
          "name": "price",
          "type": "uint256"
        }
      ],
      "name": "createMarketItem",
      "outputs": [],
      "stateMutability": "payable",
      "type": "function"
    },
    {
      "inputs": [
        {
          "internalType": "address",
          "name": "nftContract",
          "type": "address"
        },
        {
          "internalType": "uint256",
          "name": "itemId",
          "type": "uint256"
        }
      ],
      "name": "createMarketSale",
      "outputs": [],
      "stateMutability": "payable",
      "type": "function"
    },
    {
      "inputs": [],
      "name": "fetchItemsCreated",
      "outputs": [
        {
          "components": [
            {
              "internalType": "uint256",
              "name": "itemId",
              "type": "uint256"
            },
            {
              "internalType": "address",
              "name": "nftContract",
              "type": "address"
            },
            {
              "internalType": "uint256",
              "name": "tokenId",
              "type": "uint256"
            },
            {
              "internalType": "address payable",
              "name": "seller",
              "type": "address"
            },
            {
              "internalType": "address",
              "name": "owner",
              "type": "address"
            },
            {
              "internalType": "uint256",
              "name": "price",
              "type": "uint256"
            },
            {
              "internalType": "bool",
              "name": "sold",
              "type": "bool"
            }
          ],
          "internalType": "struct NFTMarket.MarketItem[]",
          "name": "",
          "type": "tuple[]"
        }
      ],
      "stateMutability": "view",
      "type": "function"
    },
    {
      "inputs": [],
      "name": "fetchMarketItems",
      "outputs": [
        {
          "components": [
            {
              "internalType": "uint256",
              "name": "itemId",
              "type": "uint256"
            },
            {
              "internalType": "address",
              "name": "nftContract",
              "type": "address"
            },
            {
              "internalType": "uint256",
              "name": "tokenId",
              "type": "uint256"
            },
            {
              "internalType": "address payable",
              "name": "seller",
              "type": "address"
            },
            {
              "internalType": "address",
              "name": "owner",
              "type": "address"
            },
            {
              "internalType": "uint256",
              "name": "price",
              "type": "uint256"
            },
            {
              "internalType": "bool",
              "name": "sold",
              "type": "bool"
            }
          ],
          "internalType": "struct NFTMarket.MarketItem[]",
          "name": "",
          "type": "tuple[]"
        }
      ],
      "stateMutability": "view",
      "type": "function"
    },
    {
      "inputs": [],
      "name": "fetchMyNFTs",
      "outputs": [
        {
          "components": [
            {
              "internalType": "uint256",
              "name": "itemId",
              "type": "uint256"
            },
            {
              "internalType": "address",
              "name": "nftContract",
              "type": "address"
            },
            {
              "internalType": "uint256",
              "name": "tokenId",
              "type": "uint256"
            },
            {
              "internalType": "address payable",
              "name": "seller",
              "type": "address"
            },
            {
              "internalType": "address",
              "name": "owner",
              "type": "address"
            },
            {
              "internalType": "uint256",
              "name": "price",
              "type": "uint256"
            },
            {
              "internalType": "bool",
              "name": "sold",
              "type": "bool"
            }
          ],
          "internalType": "struct NFTMarket.MarketItem[]",
          "name": "",
          "type": "tuple[]"
        }
      ],
      "stateMutability": "view",
      "type": "function"
    },
    {
      "inputs": [],
      "name": "getListingPrice",
      "outputs": [
        {
          "internalType": "uint256",
          "name": "",
          "type": "uint256"
        }
      ],
      "stateMutability": "view",
      "type": "function"
    },
    {
      "inputs": [
        {
          "internalType": "uint256",
          "name": "itemId",
          "type": "uint256"
        }
      ],
      "name": "getMarketItemById",
      "outputs": [
        {
          "components": [
            {
              "internalType": "uint256",
              "name": "itemId",
              "type": "uint256"
            },
            {
              "internalType": "address",
              "name": "nftContract",
              "type": "address"
            },
            {
              "internalType": "uint256",
              "name": "tokenId",
              "type": "uint256"
            },
            {
              "internalType": "address payable",
              "name": "seller",
              "type": "address"
            },
            {
              "internalType": "address",
              "name": "owner",
              "type": "address"
            },
            {
              "internalType": "uint256",
              "name": "price",
              "type": "uint256"
            },
            {
              "internalType": "bool",
              "name": "sold",
              "type": "bool"
            }
          ],
          "internalType": "struct NFTMarket.MarketItem",
          "name": "",
          "type": "tuple"
        }
      ],
      "stateMutability": "view",
      "type": "function"
    },
    {
      "inputs": [
        {
          "internalType": "uint256",
          "name": "",
          "type": "uint256"
        }
      ],
      "name": "idToMarketItem",
      "outputs": [
        {
          "internalType": "uint256",
          "name": "itemId",
          "type": "uint256"
        },
        {
          "internalType": "address",
          "name": "nftContract",
          "type": "address"
        },
        {
          "internalType": "uint256",
          "name": "tokenId",
          "type": "uint256"
        },
        {
          "internalType": "address payable",
          "name": "seller",
          "type": "address"
        },
        {
          "internalType": "address",
          "name": "owner",
          "type": "address"
        },
        {
          "internalType": "uint256",
          "name": "price",
          "type": "uint256"
        },
        {
          "internalType": "bool",
          "name": "sold",
          "type": "bool"
        }
      ],
      "stateMutability": "view",
      "type": "function"
    }
  ],
  "bytecode": "0x60806040526658d15e1762800060045534801561001b57600080fd5b50600160008190555033600360006101000a81548173ffffffffffffffffffffffffffffffffffffffff021916908373ffffffffffffffffffffffffffffffffffffffff160217905550611d63806100746000396000f3fe60806040526004361061007b5760003560e01c806358eb2df51161004e57806358eb2df51461013e578063c23b139e1461015a578063e61a70c014610176578063f064c32e146101b95761007b565b80630f08efe01461008057806312e85585146100ab578063202e3740146100d657806353dbceb114610101575b600080fd5b34801561008c57600080fd5b506100956101e4565b6040516100a29190611948565b60405180910390f35b3480156100b757600080fd5b506100c061050f565b6040516100cd9190611a05565b60405180910390f35b3480156100e257600080fd5b506100eb610519565b6040516100f89190611948565b60405180910390f35b34801561010d57600080fd5b506101286004803603810190610123919061160d565b6108c9565b60405161013591906119ea565b60405180910390f35b610158600480360381019061015391906115be565b610a31565b005b610174600480360381019061016f9190611582565b610d94565b005b34801561018257600080fd5b5061019d6004803603810190610198919061160d565b611054565b6040516101b09796959493929190611a20565b60405180910390f35b3480156101c557600080fd5b506101ce611103565b6040516101db9190611948565b60405180910390f35b606060006101f260016114b3565b9050600061020060026114b3565b61020a60016114b3565b6102149190611b2f565b90506000808267ffffffffffffffff811115610259577f4e487b7100000000000000000000000000000000000000000000000000000000600052604160045260246000fd5b60405190808252806020026020018201604052801561029257816020015b61027f6114d7565b8152602001906001900390816102775790505b50905060005b84811015610504573073ffffffffffffffffffffffffffffffffffffffff16600660006001846102c89190611ad9565b815260200190815260200160002060040160009054906101000a900473ffffffffffffffffffffffffffffffffffffffff1673ffffffffffffffffffffffffffffffffffffffff1614156104f1576000600660006001846103299190611ad9565b81526020019081526020016000206000015490506000600660008381526020019081526020016000209050806040518060e0016040529081600082015481526020016001820160009054906101000a900473ffffffffffffffffffffffffffffffffffffffff1673ffffffffffffffffffffffffffffffffffffffff1673ffffffffffffffffffffffffffffffffffffffff168152602001600282015481526020016003820160009054906101000a900473ffffffffffffffffffffffffffffffffffffffff1673ffffffffffffffffffffffffffffffffffffffff1673ffffffffffffffffffffffffffffffffffffffff1681526020016004820160009054906101000a900473ffffffffffffffffffffffffffffffffffffffff1673ffffffffffffffffffffffffffffffffffffffff1673ffffffffffffffffffffffffffffffffffffffff168152602001600582015481526020016006820160009054906101000a900460ff1615151515815250508486815181106104d4577f4e487b7100000000000000000000000000000000000000000000000000000000600052603260045260246000fd5b60200260200101819052506001856104ec9190611ad9565b945050505b80806104fc90611bbd565b915050610298565b508094505050505090565b6000600454905090565b6060600061052760016114b3565b905060008060005b838110156105d0573373ffffffffffffffffffffffffffffffffffffffff166006600060018461055f9190611ad9565b815260200190815260200160002060040160009054906101000a900473ffffffffffffffffffffffffffffffffffffffff1673ffffffffffffffffffffffffffffffffffffffff1614156105bd576001836105ba9190611ad9565b92505b80806105c890611bbd565b91505061052f565b5060008267ffffffffffffffff811115610613577f4e487b7100000000000000000000000000000000000000000000000000000000600052604160045260246000fd5b60405190808252806020026020018201604052801561064c57816020015b6106396114d7565b8152602001906001900390816106315790505b50905060005b848110156108be573373ffffffffffffffffffffffffffffffffffffffff16600660006001846106829190611ad9565b815260200190815260200160002060040160009054906101000a900473ffffffffffffffffffffffffffffffffffffffff1673ffffffffffffffffffffffffffffffffffffffff1614156108ab576000600660006001846106e39190611ad9565b81526020019081526020016000206000015490506000600660008381526020019081526020016000209050806040518060e0016040529081600082015481526020016001820160009054906101000a900473ffffffffffffffffffffffffffffffffffffffff1673ffffffffffffffffffffffffffffffffffffffff1673ffffffffffffffffffffffffffffffffffffffff168152602001600282015481526020016003820160009054906101000a900473ffffffffffffffffffffffffffffffffffffffff1673ffffffffffffffffffffffffffffffffffffffff1673ffffffffffffffffffffffffffffffffffffffff1681526020016004820160009054906101000a900473ffffffffffffffffffffffffffffffffffffffff1673ffffffffffffffffffffffffffffffffffffffff1673ffffffffffffffffffffffffffffffffffffffff168152602001600582015481526020016006820160009054906101000a900460ff16151515158152505084868151811061088e577f4e487b7100000000000000000000000000000000000000000000000000000000600052603260045260246000fd5b60200260200101819052506001856108a69190611ad9565b945050505b80806108b690611bbd565b915050610652565b508094505050505090565b6108d16114d7565b600660008381526020019081526020016000206040518060e0016040529081600082015481526020016001820160009054906101000a900473ffffffffffffffffffffffffffffffffffffffff1673ffffffffffffffffffffffffffffffffffffffff1673ffffffffffffffffffffffffffffffffffffffff168152602001600282015481526020016003820160009054906101000a900473ffffffffffffffffffffffffffffffffffffffff1673ffffffffffffffffffffffffffffffffffffffff1673ffffffffffffffffffffffffffffffffffffffff1681526020016004820160009054906101000a900473ffffffffffffffffffffffffffffffffffffffff1673ffffffffffffffffffffffffffffffffffffffff1673ffffffffffffffffffffffffffffffffffffffff168152602001600582015481526020016006820160009054906101000a900460ff1615151515815250509050919050565b60026000541415610a77576040517f08c379a0000000000000000000000000000000000000000000000000000000008152600401610a6e906119aa565b60405180910390fd5b600260008190555060008111610ac2576040517f08c379a0000000000000000000000000000000000000000000000000000000008152600401610ab9906119ca565b60405180910390fd5b6004543414610b06576040517f08c379a0000000000000000000000000000000000000000000000000000000008152600401610afd9061198a565b60405180910390fd5b610b1060016114c1565b6000610b1c60016114b3565b90506040518060e001604052808281526020018573ffffffffffffffffffffffffffffffffffffffff1681526020018481526020013373ffffffffffffffffffffffffffffffffffffffff1681526020013073ffffffffffffffffffffffffffffffffffffffff16815260200183815260200160001515815250600660008381526020019081526020016000206000820151816000015560208201518160010160006101000a81548173ffffffffffffffffffffffffffffffffffffffff021916908373ffffffffffffffffffffffffffffffffffffffff1602179055506040820151816002015560608201518160030160006101000a81548173ffffffffffffffffffffffffffffffffffffffff021916908373ffffffffffffffffffffffffffffffffffffffff16021790555060808201518160040160006101000a81548173ffffffffffffffffffffffffffffffffffffffff021916908373ffffffffffffffffffffffffffffffffffffffff16021790555060a0820151816005015560c08201518160060160006101000a81548160ff0219169083151502179055509050508373ffffffffffffffffffffffffffffffffffffffff166323b872dd3330866040518463ffffffff1660e01b8152600401610cfc939291906118cc565b600060405180830381600087803b158015610d1657600080fd5b505af1158015610d2a573d6000803e3d6000fd5b50505050828473ffffffffffffffffffffffffffffffffffffffff16827f045dfa01dcba2b36aba1d3dc4a874f4b0c5d2fbeb8d2c4b34a7d88c8d8f929d1336000876000604051610d7e9493929190611903565b60405180910390a4506001600081905550505050565b60026000541415610dda576040517f08c379a0000000000000000000000000000000000000000000000000000000008152600401610dd1906119aa565b60405180910390fd5b600260008190555060006006600083815260200190815260200160002060050154905080341015610e40576040517f08c379a0000000000000000000000000000000000000000000000000000000008152600401610e379061196a565b60405180910390fd5b60006006600084815260200190815260200160002060020154905060006006600085815260200190815260200160002060030160009054906101000a900473ffffffffffffffffffffffffffffffffffffffff1690508473ffffffffffffffffffffffffffffffffffffffff166323b872dd3033856040518463ffffffff1660e01b8152600401610ed3939291906118cc565b600060405180830381600087803b158015610eed57600080fd5b505af1158015610f01573d6000803e3d6000fd5b50505050336006600086815260200190815260200160002060040160006101000a81548173ffffffffffffffffffffffffffffffffffffffff021916908373ffffffffffffffffffffffffffffffffffffffff16021790555060016006600086815260200190815260200160002060060160006101000a81548160ff021916908315150217905550610f9360026114c1565b600360009054906101000a900473ffffffffffffffffffffffffffffffffffffffff1673ffffffffffffffffffffffffffffffffffffffff166108fc6004549081150290604051600060405180830381858888f19350505050158015610ffd573d6000803e3d6000fd5b508073ffffffffffffffffffffffffffffffffffffffff166108fc849081150290604051600060405180830381858888f19350505050158015611044573d6000803e3d6000fd5b5050505060016000819055505050565b60066020528060005260406000206000915090508060000154908060010160009054906101000a900473ffffffffffffffffffffffffffffffffffffffff16908060020154908060030160009054906101000a900473ffffffffffffffffffffffffffffffffffffffff16908060040160009054906101000a900473ffffffffffffffffffffffffffffffffffffffff16908060050154908060060160009054906101000a900460ff16905087565b6060600061111160016114b3565b905060008060005b838110156111ba573373ffffffffffffffffffffffffffffffffffffffff16600660006001846111499190611ad9565b815260200190815260200160002060030160009054906101000a900473ffffffffffffffffffffffffffffffffffffffff1673ffffffffffffffffffffffffffffffffffffffff1614156111a7576001836111a49190611ad9565b92505b80806111b290611bbd565b915050611119565b5060008267ffffffffffffffff8111156111fd577f4e487b7100000000000000000000000000000000000000000000000000000000600052604160045260246000fd5b60405190808252806020026020018201604052801561123657816020015b6112236114d7565b81526020019060019003908161121b5790505b50905060005b848110156114a8573373ffffffffffffffffffffffffffffffffffffffff166006600060018461126c9190611ad9565b815260200190815260200160002060030160009054906101000a900473ffffffffffffffffffffffffffffffffffffffff1673ffffffffffffffffffffffffffffffffffffffff161415611495576000600660006001846112cd9190611ad9565b81526020019081526020016000206000015490506000600660008381526020019081526020016000209050806040518060e0016040529081600082015481526020016001820160009054906101000a900473ffffffffffffffffffffffffffffffffffffffff1673ffffffffffffffffffffffffffffffffffffffff1673ffffffffffffffffffffffffffffffffffffffff168152602001600282015481526020016003820160009054906101000a900473ffffffffffffffffffffffffffffffffffffffff1673ffffffffffffffffffffffffffffffffffffffff1673ffffffffffffffffffffffffffffffffffffffff1681526020016004820160009054906101000a900473ffffffffffffffffffffffffffffffffffffffff1673ffffffffffffffffffffffffffffffffffffffff1673ffffffffffffffffffffffffffffffffffffffff168152602001600582015481526020016006820160009054906101000a900460ff161515151581525050848681518110611478577f4e487b7100000000000000000000000000000000000000000000000000000000600052603260045260246000fd5b60200260200101819052506001856114909190611ad9565b945050505b80806114a090611bbd565b91505061123c565b508094505050505090565b600081600001549050919050565b6001816000016000828254019250508190555050565b6040518060e0016040528060008152602001600073ffffffffffffffffffffffffffffffffffffffff16815260200160008152602001600073ffffffffffffffffffffffffffffffffffffffff168152602001600073ffffffffffffffffffffffffffffffffffffffff168152602001600081526020016000151581525090565b60008135905061156781611cff565b92915050565b60008135905061157c81611d16565b92915050565b6000806040838503121561159557600080fd5b60006115a385828601611558565b92505060206115b48582860161156d565b9150509250929050565b6000806000606084860312156115d357600080fd5b60006115e186828701611558565b93505060206115f28682870161156d565b92505060406116038682870161156d565b9150509250925092565b60006020828403121561161f57600080fd5b600061162d8482850161156d565b91505092915050565b60006116428383611792565b60e08301905092915050565b61165781611b75565b82525050565b61166681611b75565b82525050565b61167581611b63565b82525050565b61168481611b63565b82525050565b600061169582611a9f565b61169f8185611ab7565b93506116aa83611a8f565b8060005b838110156116db5781516116c28882611636565b97506116cd83611aaa565b9250506001810190506116ae565b5085935050505092915050565b6116f181611b87565b82525050565b61170081611b87565b82525050565b6000611713601c83611ac8565b915061171e82611c35565b602082019050919050565b6000611736602483611ac8565b915061174182611c5e565b604082019050919050565b6000611759601f83611ac8565b915061176482611cad565b602082019050919050565b600061177c601c83611ac8565b915061178782611cd6565b602082019050919050565b60e0820160008201516117a860008501826118ae565b5060208201516117bb602085018261166c565b5060408201516117ce60408501826118ae565b5060608201516117e1606085018261164e565b5060808201516117f4608085018261166c565b5060a082015161180760a08501826118ae565b5060c082015161181a60c08501826116e8565b50505050565b60e08201600082015161183660008501826118ae565b506020820151611849602085018261166c565b50604082015161185c60408501826118ae565b50606082015161186f606085018261164e565b506080820151611882608085018261166c565b5060a082015161189560a08501826118ae565b5060c08201516118a860c08501826116e8565b50505050565b6118b781611bb3565b82525050565b6118c681611bb3565b82525050565b60006060820190506118e1600083018661167b565b6118ee602083018561167b565b6118fb60408301846118bd565b949350505050565b6000608082019050611918600083018761167b565b611925602083018661167b565b61193260408301856118bd565b61193f60608301846116f7565b95945050505050565b60006020820190508181036000830152611962818461168a565b905092915050565b6000602082019050818103600083015261198381611706565b9050919050565b600060208201905081810360008301526119a381611729565b9050919050565b600060208201905081810360008301526119c38161174c565b9050919050565b600060208201905081810360008301526119e38161176f565b9050919050565b600060e0820190506119ff6000830184611820565b92915050565b6000602082019050611a1a60008301846118bd565b92915050565b600060e082019050611a35600083018a6118bd565b611a42602083018961167b565b611a4f60408301886118bd565b611a5c606083018761165d565b611a69608083018661167b565b611a7660a08301856118bd565b611a8360c08301846116f7565b98975050505050505050565b6000819050602082019050919050565b600081519050919050565b6000602082019050919050565b600082825260208201905092915050565b600082825260208201905092915050565b6000611ae482611bb3565b9150611aef83611bb3565b9250827fffffffffffffffffffffffffffffffffffffffffffffffffffffffffffffffff03821115611b2457611b23611c06565b5b828201905092915050565b6000611b3a82611bb3565b9150611b4583611bb3565b925082821015611b5857611b57611c06565b5b828203905092915050565b6000611b6e82611b93565b9050919050565b6000611b8082611b93565b9050919050565b60008115159050919050565b600073ffffffffffffffffffffffffffffffffffffffff82169050919050565b6000819050919050565b6000611bc882611bb3565b91507fffffffffffffffffffffffffffffffffffffffffffffffffffffffffffffffff821415611bfb57611bfa611c06565b5b600182019050919050565b7f4e487b7100000000000000000000000000000000000000000000000000000000600052601160045260246000fd5b7f53656e6420636f727265637420616d6f756e74206f6620657468657200000000600082015250565b7f5072696365206d75737420626520657175616c20746f206c697374696e67207060008201527f7269636500000000000000000000000000000000000000000000000000000000602082015250565b7f5265656e7472616e637947756172643a207265656e7472616e742063616c6c00600082015250565b7f5072696365206d757374206265206174206c6561737420312077656900000000600082015250565b611d0881611b63565b8114611d1357600080fd5b50565b611d1f81611bb3565b8114611d2a57600080fd5b5056fea26469706673582212206441fc3c7bec6777dbe9632a4eae5394158a25b1f602e8c3370dd50978519bcf64736f6c63430008040033",
  "linkReferences": {},
  "deployedLinkReferences": {}
}